{
  "contractName": "DataEscrow",
  "abi": [
    {
      "anonymous": false,
      "inputs": [
        {
          "indexed": true,
          "name": "_dataID",
          "type": "bytes32"
        },
        {
          "indexed": false,
          "name": "success",
          "type": "bool"
        }
      ],
      "name": "AddData",
      "type": "event"
    },
    {
      "anonymous": false,
      "inputs": [
        {
          "indexed": false,
          "name": "_reqBlockID",
          "type": "uint256"
        },
        {
          "indexed": false,
          "name": "_isSuccess",
          "type": "bool"
        }
      ],
      "name": "AddAccess",
      "type": "event"
    },
    {
      "anonymous": false,
      "inputs": [
        {
          "indexed": false,
          "name": "_assertionBlockID",
          "type": "uint256"
        },
        {
          "indexed": false,
          "name": "_isSuccess",
          "type": "bool"
        }
      ],
      "name": "AttestAccessLog",
      "type": "event"
    },
    {
      "constant": false,
      "inputs": [
        {
          "name": "_dataID",
          "type": "bytes32"
        },
        {
          "name": "_ownerID",
          "type": "bytes32"
        },
        {
          "name": "_pkData",
          "type": "bytes32"
        },
        {
          "name": "_quoteRA",
          "type": "bytes32"
        },
        {
          "name": "_authorizedList",
          "type": "bytes32[]"
        }
      ],
      "name": "addDataEntry",
      "outputs": [
        {
          "name": "success",
          "type": "bool"
        }
      ],
      "payable": false,
      "stateMutability": "nonpayable",
      "type": "function"
    },
    {
      "constant": false,
      "inputs": [
        {
          "name": "_requesterID",
          "type": "bytes32"
        },
        {
          "name": "_dataID",
          "type": "bytes32"
        },
        {
          "name": "_JWT",
          "type": "bytes32"
        },
        {
          "name": "_callbackURL",
          "type": "bytes32"
        },
        {
          "name": "_reqWalletPK",
          "type": "bytes32"
        }
      ],
      "name": "addAccessRequest",
      "outputs": [
        {
          "name": "_reqBlockID",
          "type": "uint256"
        },
        {
          "name": "_isSuccess",
          "type": "bool"
        }
      ],
      "payable": false,
      "stateMutability": "nonpayable",
      "type": "function"
    },
    {
      "constant": true,
      "inputs": [
        {
          "name": "_dataID",
          "type": "bytes32"
        },
        {
          "name": "_requesterID",
          "type": "bytes32"
        }
      ],
      "name": "verifyAuthList",
      "outputs": [
        {
          "name": "auth",
          "type": "bool"
        }
      ],
      "payable": false,
      "stateMutability": "view",
      "type": "function"
    },
    {
      "constant": false,
      "inputs": [
        {
          "name": "_dataID",
          "type": "bytes32"
        },
        {
          "name": "_reqBlockID",
          "type": "uint256"
        },
        {
          "name": "_quoteRA",
          "type": "bytes32"
        },
        {
          "name": "_reqBlockHash",
          "type": "bytes32"
        }
      ],
      "name": "accessLogAssertion",
      "outputs": [
        {
          "name": "_assertionBlockID",
          "type": "uint256"
        },
        {
          "name": "_isSuccess",
          "type": "bool"
        }
      ],
      "payable": false,
      "stateMutability": "nonpayable",
      "type": "function"
    },
    {
      "constant": true,
      "inputs": [
        {
          "name": "_requestID",
          "type": "uint256"
        }
      ],
      "name": "readAccessLog",
      "outputs": [
        {
          "name": "_requester",
          "type": "bytes32"
        },
        {
          "name": "_accessTime",
          "type": "uint256"
        },
        {
          "name": "_dataID",
          "type": "bytes32"
        },
        {
          "name": "_isSuccess",
          "type": "bool"
        }
      ],
      "payable": false,
      "stateMutability": "view",
      "type": "function"
    }
  ],
  "bytecode": "0x608060405234801561001057600080fd5b506109fb806100206000396000f3fe608060405234801561001057600080fd5b50600436106100575760003560e01c8063131ff19d1461005c578063363a5f98146100b75780634c123774146101af578063e92066cf14610224578063eea4e1551461028f575b600080fd5b6100886004803603602081101561007257600080fd5b81019080803590602001909291905050506102df565b604051808581526020018481526020018381526020018215151515815260200194505050505060405180910390f35b610195600480360360a08110156100cd57600080fd5b81019080803590602001909291908035906020019092919080359060200190929190803590602001909291908035906020019064010000000081111561011257600080fd5b82018360208201111561012457600080fd5b8035906020019184602083028401116401000000008311171561014657600080fd5b919080806020026020016040519081016040528093929190818152602001838360200280828437600081840152601f19601f820116905080830192505050505050509192919290505050610417565b604051808215151515815260200191505060405180910390f35b610203600480360360a08110156101c557600080fd5b8101908080359060200190929190803590602001909291908035906020019092919080359060200190929190803590602001909291905050506104e1565b60405180838152602001821515151581526020019250505060405180910390f35b61026e6004803603608081101561023a57600080fd5b81019080803590602001909291908035906020019092919080359060200190929190803590602001909291905050506106a7565b60405180838152602001821515151581526020019250505060405180910390f35b6102c5600480360360408110156102a557600080fd5b8101908080359060200190929190803590602001909291905050506107ec565b604051808215151515815260200191505060405180910390f35b6000806000806000801b60036000878152602001908152602001600020600001541415610374576040517f08c379a00000000000000000000000000000000000000000000000000000000081526004018080602001828103825260198152602001807f72657175657374494420646f6573206e6f74206578697374210000000000000081525060200191505060405180910390fd5b61037c6108ad565b600360008781526020019081526020016000206040518060e00160405290816000820154815260200160018201548152602001600282015481526020016003820154815260200160048201548152602001600582015481526020016006820160009054906101000a900460ff161515151581525050905080600001518160a0015182602001518360c001519450945094509450509193509193565b60006104216108fb565b60405180608001604052808781526020018681526020018581526020018481525090508060016000898152602001908152602001600020600082015181600001556020820151816001015560408201518160020155606082015181600301908051906020019061049292919061092c565b50905050867fb17e770e9c51cb0bf15c686b9f34c74d58b38cb5d389c8b569814f64a93a29be6001604051808215151515815260200191505060405180910390a2600191505095945050505050565b6000806000801b60016000888152602001908152602001600020600001541415610573576040517f08c379a00000000000000000000000000000000000000000000000000000000081526004018080602001828103825260168152602001807f64617461494420646f6573206e6f74206578697374730000000000000000000081525060200191505060405180910390fd5b600080905060011515610586888a6107ec565b1515141561059357600190505b61059b6108ad565b6040518060e001604052808a815260200189815260200188815260200187815260200186815260200142815260200183151581525090504360028190555080600360006002548152602001908152602001600020600082015181600001556020820151816001015560408201518160020155606082015181600301556080820151816004015560a0820151816005015560c08201518160060160006101000a81548160ff0219169083151502179055509050507fb83e0cc87a2eec632405e55795d902f720f957eb12fdc451f0e5cc921db2be086002548360405180838152602001821515151581526020019250505060405180910390a1600254829350935050509550959350505050565b60008082854014610720576040517f08c379a000000000000000000000000000000000000000000000000000000000815260040180806020018281038252601c8152602001807f4163636573732072657175657374206973206e6f742076616c6964210000000081525060200191505060405180910390fd5b610728610979565b60405180608001604052808881526020018781526020018681526020018581525090504360048190555080600560006004548152602001908152602001600020600082015181600001556020820151816001015560408201518160020155606082015181600301559050507fc6e1292b8d2f8e2d8b9c7c0769908384c1910777e93544056c1bf0eace3b9c6c600454600160405180838152602001821515151581526020019250505060405180910390a16002546001925092505094509492505050565b600060606001600085815260200190815260200160002060030180548060200260200160405190810160405280929190818152602001828054801561085057602002820191906000526020600020905b81548152602001906001019080831161083c575b5050505050905060008090505b81518110156108a057600082828151811061087457fe5b602002602001015190508481141561089257600193505050506108a7565b50808060010191505061085d565b5060009150505b92915050565b6040518060e001604052806000801916815260200160008019168152602001600080191681526020016000801916815260200160008019168152602001600081526020016000151581525090565b6040518060800160405280600080191681526020016000801916815260200160008019168152602001606081525090565b828054828255906000526020600020908101928215610968579160200282015b8281111561096757825182559160200191906001019061094c565b5b50905061097591906109aa565b5090565b6040518060800160405280600080191681526020016000815260200160008019168152602001600080191681525090565b6109cc91905b808211156109c85760008160009055506001016109b0565b5090565b9056fea165627a7a72305820850be19ae35f6720e656ce8ed9828283b2e3131fc18cdcd9c9cca0588f4541420029",
  "source": "pragma solidity >=0.4.22 <0.6.0;\n\ncontract DataEscrow {\n    //define constant: enclave wallet public key hardcoded\n    bytes32 constant enclaveWalletPK = \"d439730b8e59401b9adb42a79f93bd52\"; \n    \n    // data registration data struct\n    bytes32 dataID;\n    struct EscrowData {\n        bytes32 ownerID;\n        bytes32 pkData;\n        bytes32 quoteRA;\n        bytes32[] authorizedList;\n    }\n    mapping(bytes32 =>EscrowData) dataEntry;\n    \n    //Requester's access request log data struct\n    uint reqBlockID;\n    struct AccessRequest {\n        bytes32 requesterID;\n        bytes32 dataID;\n        bytes32 JWT;\n        bytes32 callbackURL;\n        bytes32 reqWalletPK;\n        uint accessTime;\n        bool isSuccess;\n    }\n    mapping(uint=> AccessRequest) accessLog;\n    \n    //SGX access log assertion data struct\n    uint assertionBlockID;\n    struct AccessAssertion {\n        bytes32 dataID;\n        uint reqBlockID;\n        bytes32 quoteRA;\n        bytes32 reqBlockHash;\n    }\n    mapping(uint=> AccessAssertion) enclaveVerified;\n\n    \n    event AddData(bytes32 indexed _dataID, bool success);\n    event AddAccess (uint _reqBlockID, bool _isSuccess);\n    event AttestAccessLog(uint _assertionBlockID, bool _isSuccess);\n\n    function addDataEntry (bytes32 _dataID, bytes32 _ownerID, bytes32 _pkData, bytes32 _quoteRA, \n    bytes32[] memory _authorizedList) public returns (bool success) {\n        EscrowData memory owner = EscrowData (_ownerID, _pkData, _quoteRA, _authorizedList);\n        dataEntry[_dataID] = owner;\n        emit AddData(_dataID, true);\n        return true;\n    }\n\n    \n     \n    function addAccessRequest (bytes32 _requesterID, bytes32 _dataID, bytes32 _JWT, bytes32 _callbackURL, \n        bytes32 _reqWalletPK) public returns (uint _reqBlockID, bool _isSuccess) {\n        //check if the dataID is valid\n        require(dataEntry[_dataID].ownerID!=0, \"dataID does not exists\");\n        bool accessAllow = false;\n        //verify requester is in ACL\n        if (verifyAuthList(_dataID, _requesterID) == true){\n            // add accessAllow success if the requester is authorized\n            accessAllow = true;\n        } \n        AccessRequest memory access = AccessRequest(_requesterID, _dataID, _JWT, _callbackURL,\n            _reqWalletPK, now, accessAllow);\n        reqBlockID = block.number;\n        accessLog[reqBlockID] = access;\n        emit AddAccess(reqBlockID,accessAllow);\n        return (reqBlockID,accessAllow);\n    }\n    \n    function verifyAuthList(bytes32 _dataID, bytes32 _requesterID) public view returns (bool auth) {\n     // getAuthList\n        bytes32[] memory authList = dataEntry[_dataID].authorizedList;\n     // verify if request is in authList\n        for (uint i = 0; i < authList.length; i++) {\n            bytes32 authID = authList[i];\n            if (authID == _requesterID){\n            return true; //mathed\n             }\n        }\n        return false; //no match\n     }\n    \n    function accessLogAssertion (bytes32 _dataID, uint _reqBlockID, bytes32 _quoteRA, \n        bytes32 _reqBlockHash) public returns (uint _assertionBlockID, bool _isSuccess) {\n        //obtain blockhash with block ID and compare the hash sent by proxy\n        require(blockhash(_reqBlockID)==_reqBlockHash, \"Access request is not valid!\");\n        //Add attestation\n        AccessAssertion memory assertion = AccessAssertion (_dataID, _reqBlockID, _quoteRA,\n            _reqBlockHash);\n        assertionBlockID = block.number;\n        enclaveVerified[assertionBlockID] = assertion;\n        emit AttestAccessLog (assertionBlockID,true);\n        return (reqBlockID,true);\n    }\n    \n    function readAccessLog (uint _requestID) public view returns (bytes32 _requester, uint _accessTime, \n        bytes32 _dataID, bool _isSuccess) {\n         //check if requestID exists\n        if (accessLog[_requestID].requesterID == 0){\n            revert (\"requestID does not exist!\");\n        }\n         // get AccessRequest stuct \n        AccessRequest memory access = accessLog[_requestID];\n        return (access.requesterID, access.accessTime, access.dataID, access.isSuccess);\n    }\n\n}",
  "sourcePath": "/home/osboxes/DataEscrowDapp/contracts/DataEscrow.sol",
  "compiler": {
    "name": "solc",
    "version": "0.5.8+commit.23d335f2.Emscripten.clang"
  },
  "schemaVersion": "3.0.11",
  "updatedAt": "2019-11-04T08:33:02.515Z",
  "devdoc": {
    "methods": {}
  },
  "userdoc": {
    "methods": {}
  }
}